{
  "address": "0xCBf32De949BA7f0c213315867100C089b2F1E1Ac",
  "abi": [
    {
      "inputs": [
        {
          "internalType": "contract ISushiBar",
          "name": "bar_",
          "type": "address"
        },
        {
          "internalType": "contract IERC20",
          "name": "sushi_",
          "type": "address"
        }
      ],
      "stateMutability": "nonpayable",
      "type": "constructor"
    },
    {
      "anonymous": false,
      "inputs": [
        {
          "indexed": true,
          "internalType": "address",
          "name": "previousOwner",
          "type": "address"
        },
        {
          "indexed": true,
          "internalType": "address",
          "name": "newOwner",
          "type": "address"
        }
      ],
      "name": "OwnershipTransferred",
      "type": "event"
    },
    {
      "inputs": [],
      "name": "claimOwnership",
      "outputs": [],
      "stateMutability": "nonpayable",
      "type": "function"
    },
    {
      "inputs": [
        {
          "internalType": "uint256",
          "name": "balance",
          "type": "uint256"
        }
      ],
      "name": "exit",
      "outputs": [
        {
          "internalType": "int256",
          "name": "amountAdded",
          "type": "int256"
        }
      ],
      "stateMutability": "nonpayable",
      "type": "function"
    },
    {
      "inputs": [
        {
          "internalType": "uint256",
          "name": "balance",
          "type": "uint256"
        },
        {
          "internalType": "address",
          "name": "",
          "type": "address"
        }
      ],
      "name": "harvest",
      "outputs": [
        {
          "internalType": "int256",
          "name": "amountAdded",
          "type": "int256"
        }
      ],
      "stateMutability": "nonpayable",
      "type": "function"
    },
    {
      "inputs": [],
      "name": "owner",
      "outputs": [
        {
          "internalType": "address",
          "name": "",
          "type": "address"
        }
      ],
      "stateMutability": "view",
      "type": "function"
    },
    {
      "inputs": [],
      "name": "pendingOwner",
      "outputs": [
        {
          "internalType": "address",
          "name": "",
          "type": "address"
        }
      ],
      "stateMutability": "view",
      "type": "function"
    },
    {
      "inputs": [
        {
          "internalType": "uint256",
          "name": "amount",
          "type": "uint256"
        }
      ],
      "name": "skim",
      "outputs": [],
      "stateMutability": "nonpayable",
      "type": "function"
    },
    {
      "inputs": [
        {
          "internalType": "address",
          "name": "newOwner",
          "type": "address"
        },
        {
          "internalType": "bool",
          "name": "direct",
          "type": "bool"
        },
        {
          "internalType": "bool",
          "name": "renounce",
          "type": "bool"
        }
      ],
      "name": "transferOwnership",
      "outputs": [],
      "stateMutability": "nonpayable",
      "type": "function"
    },
    {
      "inputs": [
        {
          "internalType": "uint256",
          "name": "amount",
          "type": "uint256"
        }
      ],
      "name": "withdraw",
      "outputs": [
        {
          "internalType": "uint256",
          "name": "actualAmount",
          "type": "uint256"
        }
      ],
      "stateMutability": "nonpayable",
      "type": "function"
    }
  ],
  "transactionHash": "0xdf385de91539e4873033b949607638427e8dd41960181251befec0831234023e",
  "args": [
    "0xceb95423B86c1823deC2Cc6F877997DC9349C2F1",
    "0xa11ad60dB5f7170c3447c9b87a7801246BeA5c73"
  ],
  "solcInputHash": "e63f957c29c087e709180d3d8b0fa519",
  "bytecode": "0x60c060405234801561001057600080fd5b506040516112333803806112338339818101604052604081101561003357600080fd5b508051602090910151600080546001600160a01b0319163390811782556040519091907f8be0079c531659141344cd1fd0a4f28419497f9722a3daafe3b4186f6b6457e0908290a36001600160601b0319606092831b811660a052911b1660805260805160601c60a05160601c61111761011c6000398061031652806103cd5280610457528061052552806106cd5280610768528061082a52806108d15280610b185280610bcb5280610c7f5280610d3a52508061048752806105bf52806106475280610798528061096b52806109f35280610ae95280610d9e5280610e4e52506111176000f3fe608060405234801561001057600080fd5b50600436106100885760003560e01c80636939aaf51161005b5780636939aaf5146101285780637f8661a1146101455780638da5cb5b14610162578063e30c39781461018657610088565b8063078dfbe71461008d57806318fccc76146100c55780632e1a7d4d146101035780634e71e0c814610120575b600080fd5b6100c3600480360360608110156100a357600080fd5b506001600160a01b0381351690602081013515159060400135151561018e565b005b6100f1600480360360408110156100db57600080fd5b50803590602001356001600160a01b03166102c4565b60408051918252519081900360200190f35b6100f16004803603602081101561011957600080fd5b503561067b565b6100c3610a25565b6100c36004803603602081101561013e57600080fd5b5035610ae7565b6100f16004803603602081101561015b57600080fd5b5035610c2d565b61016a610e7e565b604080516001600160a01b039092168252519081900360200190f35b61016a610e8d565b6000546001600160a01b031633146101db576040805162461bcd60e51b815260206004820181905260248201526000805160206110c2833981519152604482015290519081900360640190fd5b81156102a3576001600160a01b0383161515806101f55750805b61023e576040805162461bcd60e51b81526020600482015260156024820152744f776e61626c653a207a65726f206164647265737360581b604482015290519081900360640190fd5b600080546040516001600160a01b03808716939216917f8be0079c531659141344cd1fd0a4f28419497f9722a3daafe3b4186f6b6457e091a3600080546001600160a01b0385166001600160a01b0319918216179091556001805490911690556102bf565b600180546001600160a01b0319166001600160a01b0385161790555b505050565b600080546001600160a01b03163314610312576040805162461bcd60e51b815260206004820181905260248201526000805160206110c2833981519152604482015290519081900360640190fd5b60007f00000000000000000000000000000000000000000000000000000000000000006001600160a01b03166370a08231306040518263ffffffff1660e01b815260040180826001600160a01b0316815260200191505060206040518083038186803b15801561038157600080fd5b505afa158015610395573d6000803e3d6000fd5b505050506040513d60208110156103ab57600080fd5b5051604080516318160ddd60e01b815290519192506000916001600160a01b037f000000000000000000000000000000000000000000000000000000000000000016916318160ddd916004808301926020929190829003018186803b15801561041357600080fd5b505afa158015610427573d6000803e3d6000fd5b505050506040513d602081101561043d57600080fd5b5051604080516370a0823160e01b81526001600160a01b037f00000000000000000000000000000000000000000000000000000000000000008116600483015291519293506000927f0000000000000000000000000000000000000000000000000000000000000000909216916370a0823191602480820192602092909190829003018186803b1580156104d057600080fd5b505afa1580156104e4573d6000803e3d6000fd5b505050506040513d60208110156104fa57600080fd5b5051905060008161050b8885610e9c565b8161051257fe5b04905060006105218583610f0e565b90507f00000000000000000000000000000000000000000000000000000000000000006001600160a01b03166367dfd4c9826040518263ffffffff1660e01b815260040180828152602001915050600060405180830381600087803b15801561058957600080fd5b505af115801561059d573d6000803e3d6000fd5b5050604080516370a0823160e01b815230600482015290516001600160a01b037f00000000000000000000000000000000000000000000000000000000000000001693506370a0823192506024808301926020929190829003018186803b15801561060757600080fd5b505afa15801561061b573d6000803e3d6000fd5b505050506040513d602081101561063157600080fd5b5051600054909650610670906001600160a01b037f00000000000000000000000000000000000000000000000000000000000000008116911688610f5e565b505050505092915050565b600080546001600160a01b031633146106c9576040805162461bcd60e51b815260206004820181905260248201526000805160206110c2833981519152604482015290519081900360640190fd5b60007f00000000000000000000000000000000000000000000000000000000000000006001600160a01b03166318160ddd6040518163ffffffff1660e01b815260040160206040518083038186803b15801561072457600080fd5b505afa158015610738573d6000803e3d6000fd5b505050506040513d602081101561074e57600080fd5b5051604080516370a0823160e01b81526001600160a01b037f00000000000000000000000000000000000000000000000000000000000000008116600483015291519293506000927f0000000000000000000000000000000000000000000000000000000000000000909216916370a0823191602480820192602092909190829003018186803b1580156107e157600080fd5b505afa1580156107f5573d6000803e3d6000fd5b505050506040513d602081101561080b57600080fd5b5051905060008161081c8685610e9c565b8161082357fe5b04905060007f00000000000000000000000000000000000000000000000000000000000000006001600160a01b03166370a08231306040518263ffffffff1660e01b815260040180826001600160a01b0316815260200191505060206040518083038186803b15801561089557600080fd5b505afa1580156108a9573d6000803e3d6000fd5b505050506040513d60208110156108bf57600080fd5b50519050808211156108cf578091505b7f00000000000000000000000000000000000000000000000000000000000000006001600160a01b03166367dfd4c9836040518263ffffffff1660e01b815260040180828152602001915050600060405180830381600087803b15801561093557600080fd5b505af1158015610949573d6000803e3d6000fd5b5050604080516370a0823160e01b815230600482015290516001600160a01b037f00000000000000000000000000000000000000000000000000000000000000001693506370a0823192506024808301926020929190829003018186803b1580156109b357600080fd5b505afa1580156109c7573d6000803e3d6000fd5b505050506040513d60208110156109dd57600080fd5b5051600054909550610a1c906001600160a01b037f00000000000000000000000000000000000000000000000000000000000000008116911687610f5e565b50505050919050565b6001546001600160a01b0316338114610a85576040805162461bcd60e51b815260206004820181905260248201527f4f776e61626c653a2063616c6c657220213d2070656e64696e67206f776e6572604482015290519081900360640190fd5b600080546040516001600160a01b03808516939216917f8be0079c531659141344cd1fd0a4f28419497f9722a3daafe3b4186f6b6457e091a3600080546001600160a01b039092166001600160a01b0319928316179055600180549091169055565b7f00000000000000000000000000000000000000000000000000000000000000006001600160a01b031663095ea7b37f0000000000000000000000000000000000000000000000000000000000000000836040518363ffffffff1660e01b815260040180836001600160a01b0316815260200182815260200192505050602060405180830381600087803b158015610b7e57600080fd5b505af1158015610b92573d6000803e3d6000fd5b505050506040513d6020811015610ba857600080fd5b505060408051632967cf8360e21b81526004810183905290516001600160a01b037f0000000000000000000000000000000000000000000000000000000000000000169163a59f3e0c91602480830192600092919082900301818387803b158015610c1257600080fd5b505af1158015610c26573d6000803e3d6000fd5b5050505050565b600080546001600160a01b03163314610c7b576040805162461bcd60e51b815260206004820181905260248201526000805160206110c2833981519152604482015290519081900360640190fd5b60007f00000000000000000000000000000000000000000000000000000000000000006001600160a01b03166370a08231306040518263ffffffff1660e01b815260040180826001600160a01b0316815260200191505060206040518083038186803b158015610cea57600080fd5b505afa158015610cfe573d6000803e3d6000fd5b505050506040513d6020811015610d1457600080fd5b5051604080516367dfd4c960e01b81526004810183905290519192506001600160a01b037f000000000000000000000000000000000000000000000000000000000000000016916367dfd4c99160248082019260009290919082900301818387803b158015610d8257600080fd5b505af1158015610d96573d6000803e3d6000fd5b5050505060007f00000000000000000000000000000000000000000000000000000000000000006001600160a01b03166370a08231306040518263ffffffff1660e01b815260040180826001600160a01b0316815260200191505060206040518083038186803b158015610e0957600080fd5b505afa158015610e1d573d6000803e3d6000fd5b505050506040513d6020811015610e3357600080fd5b50516000548582039450909150610e77906001600160a01b037f00000000000000000000000000000000000000000000000000000000000000008116911683610f5e565b5050919050565b6000546001600160a01b031681565b6001546001600160a01b031681565b6000811580610eb757505080820282828281610eb457fe5b04145b610f08576040805162461bcd60e51b815260206004820152601860248201527f426f72696e674d6174683a204d756c204f766572666c6f770000000000000000604482015290519081900360640190fd5b92915050565b80820382811115610f08576040805162461bcd60e51b8152602060048201526015602482015274426f72696e674d6174683a20556e646572666c6f7760581b604482015290519081900360640190fd5b604080516001600160a01b038481166024830152604480830185905283518084039091018152606490920183526020820180516001600160e01b031663a9059cbb60e01b178152925182516000946060949389169392918291908083835b60208310610fdb5780518252601f199092019160209182019101610fbc565b6001836020036101000a0380198251168184511680821785525050505050509050019150506000604051808303816000865af19150503d806000811461103d576040519150601f19603f3d011682016040523d82523d6000602084013e611042565b606091505b5091509150818015611070575080511580611070575080806020019051602081101561106d57600080fd5b50515b610c26576040805162461bcd60e51b815260206004820152601c60248201527f426f72696e6745524332303a205472616e73666572206661696c656400000000604482015290519081900360640190fdfe4f776e61626c653a2063616c6c6572206973206e6f7420746865206f776e6572a2646970667358221220f06067476f3a363720402ef8220a49692df936f5355836b3ba588ebf213e29ab64736f6c634300060c0033",
  "devdoc": {
    "kind": "dev",
    "methods": {
      "exit(uint256)": {
        "params": {
          "balance": "The amount of tokens the caller thinks it has invested."
        },
        "returns": {
          "amountAdded": "The delta (+profit or -loss) that occured in contrast to `balance`."
        }
      },
      "harvest(uint256,address)": {
        "params": {
          "balance": "The amount of tokens the caller thinks it has invested.",
          "sender": "The address of the initiator of this transaction. Can be used for reimbursements, etc."
        },
        "returns": {
          "amountAdded": "The delta (+profit or -loss) that occured in contrast to `balance`."
        }
      },
      "skim(uint256)": {
        "params": {
          "amount": "The amount of tokens to invest."
        }
      },
      "withdraw(uint256)": {
        "details": "The `actualAmount` should be very close to the amount. The difference should NOT be used to report a loss. That's what harvest is for.",
        "params": {
          "amount": "The requested amount the caller wants to withdraw."
        },
        "returns": {
          "actualAmount": "The real amount that is withdrawn."
        }
      }
    },
    "version": 1
  },
  "userdoc": {
    "kind": "user",
    "methods": {
      "exit(uint256)": {
        "notice": "Withdraw all assets in the safest way possible. This shouldn't fail."
      },
      "harvest(uint256,address)": {
        "notice": "Harvest any profits made converted to the asset and pass them to the caller."
      },
      "skim(uint256)": {
        "notice": "Send the assets to the Strategy and call skim to invest them."
      },
      "withdraw(uint256)": {
        "notice": "Withdraw assets. The returned amount can differ from the requested amount due to rounding."
      }
    },
    "version": 1
  },
  "storageLayout": {
    "storage": [
      {
        "astId": 149,
        "contract": "contracts/bentobox/SushiStrategy.sol:SushiStrategy",
        "label": "owner",
        "offset": 0,
        "slot": "0",
        "type": "t_address"
      },
      {
        "astId": 151,
        "contract": "contracts/bentobox/SushiStrategy.sol:SushiStrategy",
        "label": "pendingOwner",
        "offset": 0,
        "slot": "1",
        "type": "t_address"
      }
    ],
    "types": {
      "t_address": {
        "encoding": "inplace",
        "label": "address",
        "numberOfBytes": "20"
      }
    }
  }
}