{
  "address": "0xE6E340D132b5f46d1e472DebcD681B2aBc16e57E",
  "abi": [
    {
      "inputs": [],
      "name": "PERIOD",
      "outputs": [
        {
          "internalType": "uint256",
          "name": "",
          "type": "uint256"
        }
      ],
      "stateMutability": "view",
      "type": "function"
    },
    {
      "inputs": [
        {
          "internalType": "contract IUniswapV2Pair",
          "name": "pair",
          "type": "address"
        },
        {
          "internalType": "uint32",
          "name": "blockTimestamp",
          "type": "uint32"
        }
      ],
      "name": "_get",
      "outputs": [
        {
          "internalType": "uint256",
          "name": "",
          "type": "uint256"
        }
      ],
      "stateMutability": "view",
      "type": "function"
    },
    {
      "inputs": [
        {
          "internalType": "address",
          "name": "",
          "type": "address"
        }
      ],
      "name": "callerInfo",
      "outputs": [
        {
          "internalType": "contract IUniswapV2Pair",
          "name": "",
          "type": "address"
        }
      ],
      "stateMutability": "view",
      "type": "function"
    },
    {
      "inputs": [
        {
          "internalType": "bytes",
          "name": "data",
          "type": "bytes"
        }
      ],
      "name": "get",
      "outputs": [
        {
          "internalType": "bool",
          "name": "",
          "type": "bool"
        },
        {
          "internalType": "uint256",
          "name": "",
          "type": "uint256"
        }
      ],
      "stateMutability": "nonpayable",
      "type": "function"
    },
    {
      "inputs": [
        {
          "internalType": "contract IUniswapV2Pair",
          "name": "pair",
          "type": "address"
        }
      ],
      "name": "getDataParameter",
      "outputs": [
        {
          "internalType": "bytes",
          "name": "",
          "type": "bytes"
        }
      ],
      "stateMutability": "pure",
      "type": "function"
    },
    {
      "inputs": [
        {
          "internalType": "bytes",
          "name": "",
          "type": "bytes"
        }
      ],
      "name": "name",
      "outputs": [
        {
          "internalType": "string",
          "name": "",
          "type": "string"
        }
      ],
      "stateMutability": "view",
      "type": "function"
    },
    {
      "inputs": [
        {
          "internalType": "contract IUniswapV2Pair",
          "name": "",
          "type": "address"
        }
      ],
      "name": "pairs",
      "outputs": [
        {
          "internalType": "uint256",
          "name": "priceCumulativeLast",
          "type": "uint256"
        },
        {
          "internalType": "uint32",
          "name": "blockTimestampLast",
          "type": "uint32"
        },
        {
          "internalType": "uint144",
          "name": "priceAverage",
          "type": "uint144"
        }
      ],
      "stateMutability": "view",
      "type": "function"
    },
    {
      "inputs": [
        {
          "internalType": "bytes",
          "name": "data",
          "type": "bytes"
        }
      ],
      "name": "peek",
      "outputs": [
        {
          "internalType": "bool",
          "name": "",
          "type": "bool"
        },
        {
          "internalType": "uint256",
          "name": "",
          "type": "uint256"
        }
      ],
      "stateMutability": "view",
      "type": "function"
    },
    {
      "inputs": [
        {
          "internalType": "bytes",
          "name": "data",
          "type": "bytes"
        }
      ],
      "name": "peekSpot",
      "outputs": [
        {
          "internalType": "uint256",
          "name": "rate",
          "type": "uint256"
        }
      ],
      "stateMutability": "view",
      "type": "function"
    },
    {
      "inputs": [
        {
          "internalType": "bytes",
          "name": "",
          "type": "bytes"
        }
      ],
      "name": "symbol",
      "outputs": [
        {
          "internalType": "string",
          "name": "",
          "type": "string"
        }
      ],
      "stateMutability": "view",
      "type": "function"
    }
  ],
  "transactionHash": "0x54e062253c814619ac8423702baea7650cc25e672d6c9379fa082efe157181f3",
  "args": [],
  "solcInputHash": "538f5d64ee312be250145a166fb09dd6",
  "bytecode": "0x608060405234801561001057600080fd5b50610d9d806100206000396000f3fe608060405234801561001057600080fd5b506004361061009e5760003560e01c8063d39bbef011610066578063d39bbef014610127578063d568866c1461013a578063d6d7d5251461014d578063eeb8a8d31461016e578063fe33b302146101815761009e565b80634709904d146100a357806354fd9238146100cc5780637046db52146100ec578063b4d1d7951461010c578063c699c4d614610114575b600080fd5b6100b66100b1366004610a39565b6101a3565b6040516100c39190610bd3565b60405180910390f35b6100df6100da366004610ac9565b6101be565b6040516100c39190610cfa565b6100ff6100fa366004610a39565b6102f0565b6040516100c39190610bc0565b6100df610319565b6100ff610122366004610a5c565b61031f565b6100df610135366004610a5c565b61033c565b6100ff610148366004610a5c565b6103f7565b61016061015b366004610a5c565b610420565b6040516100c3929190610bb0565b61016061017c366004610a5c565b61061e565b61019461018f366004610a39565b610751565b6040516100c393929190610d03565b6001602052600090815260409020546001600160a01b031681565b600080836001600160a01b0316635909c0d56040518163ffffffff1660e01b815260040160206040518083038186803b1580156101fa57600080fd5b505afa15801561020e573d6000803e3d6000fd5b505050506040513d601f19601f820116820180604052508101906102329190610b4d565b90506000806000866001600160a01b0316630902f1ac6040518163ffffffff1660e01b815260040160606040518083038186803b15801561027257600080fd5b505afa158015610286573d6000803e3d6000fd5b505050506040513d601f19601f820116820180604052508101906102aa9190610b01565b92509250925080860363ffffffff166102d5836001600160701b0316856001600160701b0316610783565b516001600160e01b0316029390930193505050505b92915050565b6060816040516020016103039190610bd3565b6040516020818303038152906040529050919050565b61012c81565b50506040805180820190915260018152604d60f81b602082015290565b60008061034b83850185610a39565b9050600080826001600160a01b0316630902f1ac6040518163ffffffff1660e01b815260040160606040518083038186803b15801561038957600080fd5b505afa15801561039d573d6000803e3d6000fd5b505050506040513d601f19601f820116820180604052508101906103c19190610b01565b506001600160701b039182169350169050816103e582670de0b6b3a764000061086f565b816103ec57fe5b049695505050505050565b505060408051808201909152600d81526c04d69737453776170205457415609c1b602082015290565b6000808061043084860186610a39565b6001600160a01b038116600090815260208190526040902060010154909150429063ffffffff166104bb576001600160a01b0382166000908152602081905260409020600101805463ffffffff191663ffffffff831617905561049382826101be565b6001600160a01b03909216600090815260208190526040812092909255509150819050610617565b6001600160a01b03821660009081526020819052604090206001015463ffffffff90811682039061012c90821610156105285750506001600160a01b0316600090815260208190526040902060019081015490925064010000000090046001600160901b03169050610617565b600061053484846101be565b905061059f61059a670de0b6b3a764000060405180602001604052808663ffffffff166000808b6001600160a01b03166001600160a01b031681526020019081526020016000206000015487038161058857fe5b046001600160e01b03169052906108a6565b610905565b6001600160a01b0390941660009081526020819052604090206001808201805463ffffffff90961663ffffffff196001600160901b0398891664010000000090810275ffffffffffffffffffffffffffffffffffff000000001990991698909817161790819055929091559550919091049091169150505b9250929050565b6000808061062e84860186610a39565b6001600160a01b038116600090815260208190526040902060010154909150429063ffffffff1661066757600080935093505050610617565b6001600160a01b03821660009081526020819052604090206001015463ffffffff90811682039061012c90821610156106d45750506001600160a01b0316600090815260208190526040902060019081015490925064010000000090046001600160901b03169050610617565b60006106e084846101be565b9050600061073661059a670de0b6b3a764000060405180602001604052808763ffffffff166000808c6001600160a01b03166001600160a01b031681526020019081526020016000206000015488038161058857fe5b600197506001600160901b0316955050505050509250929050565b6000602081905290815260409020805460019091015463ffffffff81169064010000000090046001600160901b031683565b61078b610a14565b600082116107b45760405162461bcd60e51b81526004016107ab90610c8c565b60405180910390fd5b826107ce57506040805160208101909152600081526102ea565b6001600160901b03831161083557600082607085901b816107eb57fe5b0490506001600160e01b038111156108155760405162461bcd60e51b81526004016107ab90610c55565b6040518060200160405280826001600160e01b03168152509150506102ea565b600061084684600160701b8561090c565b90506001600160e01b038111156108155760405162461bcd60e51b81526004016107ab90610c55565b600081158061088a5750508082028282828161088757fe5b04145b6102ea5760405162461bcd60e51b81526004016107ab90610cc3565b6108ae610a26565b60008215806108d457505082516001600160e01b0316828102908382816108d157fe5b04145b6108f05760405162461bcd60e51b81526004016107ab90610be7565b60408051602081019091529081529392505050565b5160701c90565b600080600061091b8686610977565b915091506000848061092957fe5b86880990508281111561093d576001820391505b80830392508482106109615760405162461bcd60e51b81526004016107ab90610c1e565b61096c8383876109a4565b979650505050505050565b600080806000198486099050838502925082810391508281101561099c576001820391505b509250929050565b600081810382168083816109b457fe5b0492508085816109c057fe5b0494508081600003816109cf57fe5b60028581038087028203028087028203028087028203028087028203028087028203028087028203029586029003909402930460010193909302939093010292915050565b60408051602081019091526000815290565b6040518060200160405280600081525090565b600060208284031215610a4a578081fd5b8135610a5581610d28565b9392505050565b60008060208385031215610a6e578081fd5b823567ffffffffffffffff80821115610a85578283fd5b818501915085601f830112610a98578283fd5b813581811115610aa6578384fd5b866020828501011115610ab7578384fd5b60209290920196919550909350505050565b60008060408385031215610adb578182fd5b8235610ae681610d28565b91506020830135610af681610d55565b809150509250929050565b600080600060608486031215610b15578081fd5b8351610b2081610d40565b6020850151909350610b3181610d40565b6040850151909250610b4281610d55565b809150509250925092565b600060208284031215610b5e578081fd5b5051919050565b60008151808452815b81811015610b8a57602081850181015186830182015201610b6e565b81811115610b9b5782602083870101525b50601f01601f19169290920160200192915050565b9115158252602082015260400190565b600060208252610a556020830184610b65565b6001600160a01b0391909116815260200190565b60208082526019908201527f4669786564506f696e743a3a6d756c3a206f766572666c6f7700000000000000604082015260600190565b6020808252601a908201527f46756c6c4d6174683a3a6d756c4469763a206f766572666c6f77000000000000604082015260600190565b6020808252601e908201527f4669786564506f696e743a3a6672616374696f6e3a206f766572666c6f770000604082015260600190565b6020808252601e908201527f4669786564506f696e743a3a6672616374696f6e3a2064697620627920300000604082015260600190565b60208082526018908201527f426f72696e674d6174683a204d756c204f766572666c6f770000000000000000604082015260600190565b90815260200190565b92835263ffffffff9190911660208301526001600160901b0316604082015260600190565b6001600160a01b0381168114610d3d57600080fd5b50565b6001600160701b0381168114610d3d57600080fd5b63ffffffff81168114610d3d57600080fdfea264697066735822122085bb0e26f85835eb2134076f1cf8ffa253e40712918d6b9065ec76d10506287a64736f6c634300060c0033",
  "devdoc": {
    "kind": "dev",
    "methods": {
      "get(bytes)": {
        "params": {
          "data": "Usually abi encoded, implementation specific data that contains information and arguments to & about the oracle. For example: (string memory collateralSymbol, string memory assetSymbol, uint256 division) = abi.decode(data, (string, string, uint256));"
        },
        "returns": {
          "_0": "success if no valid (recent) rate is available, return false else true.",
          "_1": "rate The rate of the requested asset / pair / pool."
        }
      },
      "name(bytes)": {
        "params": {
          "data": "Usually abi encoded, implementation specific data that contains information and arguments to & about the oracle. For example: (string memory collateralSymbol, string memory assetSymbol, uint256 division) = abi.decode(data, (string, string, uint256));"
        },
        "returns": {
          "_0": "(string) A human readable name about this oracle."
        }
      },
      "peek(bytes)": {
        "params": {
          "data": "Usually abi encoded, implementation specific data that contains information and arguments to & about the oracle. For example: (string memory collateralSymbol, string memory assetSymbol, uint256 division) = abi.decode(data, (string, string, uint256));"
        },
        "returns": {
          "_0": "success if no valid (recent) rate is available, return false else true.",
          "_1": "rate The rate of the requested asset / pair / pool."
        }
      },
      "peekSpot(bytes)": {
        "params": {
          "data": "Usually abi encoded, implementation specific data that contains information and arguments to & about the oracle. For example: (string memory collateralSymbol, string memory assetSymbol, uint256 division) = abi.decode(data, (string, string, uint256));"
        },
        "returns": {
          "rate": "The rate of the requested asset / pair / pool."
        }
      },
      "symbol(bytes)": {
        "params": {
          "data": "Usually abi encoded, implementation specific data that contains information and arguments to & about the oracle. For example: (string memory collateralSymbol, string memory assetSymbol, uint256 division) = abi.decode(data, (string, string, uint256));"
        },
        "returns": {
          "_0": "(string) A human readable symbol name about this oracle."
        }
      }
    },
    "version": 1
  },
  "userdoc": {
    "kind": "user",
    "methods": {
      "get(bytes)": {
        "notice": "Get the latest exchange rate."
      },
      "name(bytes)": {
        "notice": "Returns a human readable name about this oracle."
      },
      "peek(bytes)": {
        "notice": "Check the last exchange rate without any state changes."
      },
      "peekSpot(bytes)": {
        "notice": "Check the current spot exchange rate without any state changes. For oracles like TWAP this will be different from peek()."
      },
      "symbol(bytes)": {
        "notice": "Returns a human readable (short) name about this oracle."
      }
    },
    "version": 1
  },
  "storageLayout": {
    "storage": [
      {
        "astId": 12906,
        "contract": "contracts/bentobox/SimpleSLPTWAP0Oracle.sol:SimpleSLPTWAP0Oracle",
        "label": "pairs",
        "offset": 0,
        "slot": "0",
        "type": "t_mapping(t_contract(IUniswapV2Pair)25136,t_struct(PairInfo)12902_storage)"
      },
      {
        "astId": 12910,
        "contract": "contracts/bentobox/SimpleSLPTWAP0Oracle.sol:SimpleSLPTWAP0Oracle",
        "label": "callerInfo",
        "offset": 0,
        "slot": "1",
        "type": "t_mapping(t_address,t_contract(IUniswapV2Pair)25136)"
      }
    ],
    "types": {
      "t_address": {
        "encoding": "inplace",
        "label": "address",
        "numberOfBytes": "20"
      },
      "t_contract(IUniswapV2Pair)25136": {
        "encoding": "inplace",
        "label": "contract IUniswapV2Pair",
        "numberOfBytes": "20"
      },
      "t_mapping(t_address,t_contract(IUniswapV2Pair)25136)": {
        "encoding": "mapping",
        "key": "t_address",
        "label": "mapping(address => contract IUniswapV2Pair)",
        "numberOfBytes": "32",
        "value": "t_contract(IUniswapV2Pair)25136"
      },
      "t_mapping(t_contract(IUniswapV2Pair)25136,t_struct(PairInfo)12902_storage)": {
        "encoding": "mapping",
        "key": "t_contract(IUniswapV2Pair)25136",
        "label": "mapping(contract IUniswapV2Pair => struct SimpleSLPTWAP0Oracle.PairInfo)",
        "numberOfBytes": "32",
        "value": "t_struct(PairInfo)12902_storage"
      },
      "t_struct(PairInfo)12902_storage": {
        "encoding": "inplace",
        "label": "struct SimpleSLPTWAP0Oracle.PairInfo",
        "members": [
          {
            "astId": 12897,
            "contract": "contracts/bentobox/SimpleSLPTWAP0Oracle.sol:SimpleSLPTWAP0Oracle",
            "label": "priceCumulativeLast",
            "offset": 0,
            "slot": "0",
            "type": "t_uint256"
          },
          {
            "astId": 12899,
            "contract": "contracts/bentobox/SimpleSLPTWAP0Oracle.sol:SimpleSLPTWAP0Oracle",
            "label": "blockTimestampLast",
            "offset": 0,
            "slot": "1",
            "type": "t_uint32"
          },
          {
            "astId": 12901,
            "contract": "contracts/bentobox/SimpleSLPTWAP0Oracle.sol:SimpleSLPTWAP0Oracle",
            "label": "priceAverage",
            "offset": 4,
            "slot": "1",
            "type": "t_uint144"
          }
        ],
        "numberOfBytes": "64"
      },
      "t_uint144": {
        "encoding": "inplace",
        "label": "uint144",
        "numberOfBytes": "18"
      },
      "t_uint256": {
        "encoding": "inplace",
        "label": "uint256",
        "numberOfBytes": "32"
      },
      "t_uint32": {
        "encoding": "inplace",
        "label": "uint32",
        "numberOfBytes": "4"
      }
    }
  }
}