{
  "address": "0x0165878A594ca255338adfa4d48449f69242Eb8F",
  "abi": [
    {
      "inputs": [
        {
          "internalType": "contract IBentoBoxV1",
          "name": "bentoBox_",
          "type": "address"
        },
        {
          "internalType": "contract IUniswapV2Factory",
          "name": "factory_",
          "type": "address"
        },
        {
          "internalType": "bytes32",
          "name": "pairCodeHash_",
          "type": "bytes32"
        }
      ],
      "stateMutability": "nonpayable",
      "type": "constructor"
    },
    {
      "inputs": [],
      "name": "bentoBox",
      "outputs": [
        {
          "internalType": "contract IBentoBoxV1",
          "name": "",
          "type": "address"
        }
      ],
      "stateMutability": "view",
      "type": "function"
    },
    {
      "inputs": [],
      "name": "factory",
      "outputs": [
        {
          "internalType": "contract IUniswapV2Factory",
          "name": "",
          "type": "address"
        }
      ],
      "stateMutability": "view",
      "type": "function"
    },
    {
      "inputs": [],
      "name": "pairCodeHash",
      "outputs": [
        {
          "internalType": "bytes32",
          "name": "",
          "type": "bytes32"
        }
      ],
      "stateMutability": "view",
      "type": "function"
    },
    {
      "inputs": [
        {
          "internalType": "contract IERC20",
          "name": "fromToken",
          "type": "address"
        },
        {
          "internalType": "contract IERC20",
          "name": "toToken",
          "type": "address"
        },
        {
          "internalType": "address",
          "name": "recipient",
          "type": "address"
        },
        {
          "internalType": "uint256",
          "name": "shareToMin",
          "type": "uint256"
        },
        {
          "internalType": "uint256",
          "name": "shareFrom",
          "type": "uint256"
        }
      ],
      "name": "swap",
      "outputs": [
        {
          "internalType": "uint256",
          "name": "extraShare",
          "type": "uint256"
        },
        {
          "internalType": "uint256",
          "name": "shareReturned",
          "type": "uint256"
        }
      ],
      "stateMutability": "nonpayable",
      "type": "function"
    },
    {
      "inputs": [
        {
          "internalType": "contract IERC20",
          "name": "fromToken",
          "type": "address"
        },
        {
          "internalType": "contract IERC20",
          "name": "toToken",
          "type": "address"
        },
        {
          "internalType": "address",
          "name": "recipient",
          "type": "address"
        },
        {
          "internalType": "address",
          "name": "refundTo",
          "type": "address"
        },
        {
          "internalType": "uint256",
          "name": "shareFromSupplied",
          "type": "uint256"
        },
        {
          "internalType": "uint256",
          "name": "shareToExact",
          "type": "uint256"
        }
      ],
      "name": "swapExact",
      "outputs": [
        {
          "internalType": "uint256",
          "name": "shareUsed",
          "type": "uint256"
        },
        {
          "internalType": "uint256",
          "name": "shareReturned",
          "type": "uint256"
        }
      ],
      "stateMutability": "nonpayable",
      "type": "function"
    }
  ],
  "transactionHash": "0xafc4d1699a2f524cac147901ec44cbf4ab6ac24de8d17bd49ce5be99f6efa873",
  "args": [
    "0xDc64a140Aa3E981100a9becA4E685f962f0cF6C9",
    "0x5FbDB2315678afecb367f032d93F642f64180aa3",
    "0x0d85cddde71812a9fd417dd7f9597eada582a919e9968b717ce26a64844a7f49"
  ],
  "solcInputHash": "08ef8b04f825439d9e5c95a19a76af8d",
  "bytecode": "0x60e060405234801561001057600080fd5b506040516111d73803806111d783398101604081905261002f91610052565b6001600160601b0319606093841b81166080529190921b1660a05260c0526100ac565b600080600060608486031215610066578283fd5b835161007181610094565b602085015190935061008281610094565b80925050604084015190509250925092565b6001600160a01b03811681146100a957600080fd5b50565b60805160601c60a05160601c60c0516110a56101326000398061014652806106f052806107b152508060fc5280610714528061076752508061022352806102ef52806103c0528061042e52806104ff528061055c528061058c528061063752806106cc5280610814528061098f5280610a335280610a915280610ac152506110a56000f3fe608060405234801561001057600080fd5b50600436106100575760003560e01c80634622be901461005c5780636b2ace87146100865780639aab92481461009b578063c45a0155146100b0578063e343fe12146100b8575b600080fd5b61006f61006a366004610c9e565b6100cb565b60405161007d929190611034565b60405180910390f35b61008e6106ca565b60405161007d9190610ea7565b6100a36106ee565b60405161007d9190610e9e565b61008e610712565b61006f6100c6366004610d0b565b610736565b6000806000806000896001600160a01b03168b6001600160a01b0316106100f357898b6100f6565b8a8a5b915091507f0000000000000000000000000000000000000000000000000000000000000000828260405160200161012e929190610e3f565b604051602081830303815290604052805190602001207f000000000000000000000000000000000000000000000000000000000000000060405160200161017793929190610e66565b6040516020818303038152906040528051906020012060001c92505050600080826001600160a01b0316630902f1ac6040518163ffffffff1660e01b815260040160606040518083038186803b1580156101d057600080fd5b505afa1580156101e4573d6000803e3d6000fd5b505050506040513d601f19601f820116820180604052508101906102089190610d65565b506001600160701b031691506001600160701b0316915060007f00000000000000000000000000000000000000000000000000000000000000006001600160a01b031663566231188c8960016040518463ffffffff1660e01b815260040161027293929190610f19565b60206040518083038186803b15801561028a57600080fd5b505afa15801561029e573d6000803e3d6000fd5b505050506040513d601f19601f820116820180604052508101906102c29190610db9565b905060008c6001600160a01b03168c6001600160a01b0316111561041f576102eb828585610b76565b90507f00000000000000000000000000000000000000000000000000000000000000006001600160a01b03166397da6d308e30888560006040518663ffffffff1660e01b8152600401610342959493929190610ebb565b6040805180830381600087803b15801561035b57600080fd5b505af115801561036f573d6000803e3d6000fd5b505050506040513d601f19601f820116820180604052508101906103939190610dd1565b60405163022c0d9f60e01b81529098506001600160a01b038716915063022c0d9f906103e89060009086907f000000000000000000000000000000000000000000000000000000000000000090600401610f69565b600060405180830381600087803b15801561040257600080fd5b505af1158015610416573d6000803e3d6000fd5b5050505061055a565b61042a828486610b76565b90507f00000000000000000000000000000000000000000000000000000000000000006001600160a01b03166397da6d308e30888560006040518663ffffffff1660e01b8152600401610481959493929190610ebb565b6040805180830381600087803b15801561049a57600080fd5b505af11580156104ae573d6000803e3d6000fd5b505050506040513d601f19601f820116820180604052508101906104d29190610dd1565b60405163022c0d9f60e01b81529098506001600160a01b038716915063022c0d9f906105279085906000907f000000000000000000000000000000000000000000000000000000000000000090600401610f69565b600060405180830381600087803b15801561054157600080fd5b505af1158015610555573d6000803e3d6000fd5b505050505b7f00000000000000000000000000000000000000000000000000000000000000006001600160a01b03166302b9446c8d7f00000000000000000000000000000000000000000000000000000000000000008e60008d6040518663ffffffff1660e01b81526004016105cf959493929190610ebb565b6040805180830381600087803b1580156105e857600080fd5b505af11580156105fc573d6000803e3d6000fd5b505050506040513d601f19601f820116820180604052508101906106209190610dd1565b5061062d90508988610bc4565b955085156106ba577f00000000000000000000000000000000000000000000000000000000000000006001600160a01b031663f18d03cc8e308d8a6040518563ffffffff1660e01b81526004016106879493929190610eef565b600060405180830381600087803b1580156106a157600080fd5b505af11580156106b5573d6000803e3d6000fd5b505050505b5050505050965096945050505050565b7f000000000000000000000000000000000000000000000000000000000000000081565b7f000000000000000000000000000000000000000000000000000000000000000081565b7f000000000000000000000000000000000000000000000000000000000000000081565b600080600080876001600160a01b0316896001600160a01b03161061075c57878961075f565b88885b9150915060007f00000000000000000000000000000000000000000000000000000000000000008383604051602001610799929190610e3f565b604051602081830303815290604052805190602001207f00000000000000000000000000000000000000000000000000000000000000006040516020016107e293929190610e66565b60408051601f1981840301815290829052805160209091012063097da6d360e41b825291506000906001600160a01b037f000000000000000000000000000000000000000000000000000000000000000016906397da6d3090610851908e903090879087908e90600401610ebb565b6040805180830381600087803b15801561086a57600080fd5b505af115801561087e573d6000803e3d6000fd5b505050506040513d601f19601f820116820180604052508101906108a29190610dd1565b509050600080836001600160a01b0316630902f1ac6040518163ffffffff1660e01b815260040160606040518083038186803b1580156108e157600080fd5b505afa1580156108f5573d6000803e3d6000fd5b505050506040513d601f19601f820116820180604052508101906109199190610d65565b506001600160701b031691506001600160701b0316915060008d6001600160a01b03168d6001600160a01b031611156109ef57610957848484610bf6565b604080516000808252602082019283905263022c0d9f60e01b9092529192506001600160a01b0387169163022c0d9f916109b89185907f00000000000000000000000000000000000000000000000000000000000000009060248101610f3c565b600060405180830381600087803b1580156109d257600080fd5b505af11580156109e6573d6000803e3d6000fd5b50505050610a8f565b6109fa848385610bf6565b604080516000808252602082019283905263022c0d9f60e01b9092529192506001600160a01b0387169163022c0d9f91610a5c918591907f00000000000000000000000000000000000000000000000000000000000000009060248101610f3c565b600060405180830381600087803b158015610a7657600080fd5b505af1158015610a8a573d6000803e3d6000fd5b505050505b7f00000000000000000000000000000000000000000000000000000000000000006001600160a01b03166302b9446c8e7f00000000000000000000000000000000000000000000000000000000000000008f8560006040518663ffffffff1660e01b8152600401610b04959493929190610ebb565b6040805180830381600087803b158015610b1d57600080fd5b505af1158015610b31573d6000803e3d6000fd5b505050506040513d601f19601f82011682018060405250810190610b559190610dd1565b9850610b639050888c610bc4565b9850505050505050509550959350505050565b600080610b8f6103e8610b898688610c44565b90610c44565b90506000610ba36103e5610b898689610bc4565b9050610bba6001828481610bb357fe5b0490610c7b565b9695505050505050565b80820382811115610bf05760405162461bcd60e51b8152600401610be790610f97565b60405180910390fd5b92915050565b600080610c05856103e5610c44565b90506000610c138285610c44565b90506000610c2d83610c27886103e8610c44565b90610c7b565b9050808281610c3857fe5b04979650505050505050565b6000811580610c5f57505080820282828281610c5c57fe5b04145b610bf05760405162461bcd60e51b8152600401610be790610ffd565b81810181811015610bf05760405162461bcd60e51b8152600401610be790610fc6565b60008060008060008060c08789031215610cb6578182fd5b8635610cc181611042565b95506020870135610cd181611042565b94506040870135610ce181611042565b93506060870135610cf181611042565b9598949750929560808101359460a0909101359350915050565b600080600080600060a08688031215610d22578081fd5b8535610d2d81611042565b94506020860135610d3d81611042565b93506040860135610d4d81611042565b94979396509394606081013594506080013592915050565b600080600060608486031215610d79578283fd5b8351610d848161105a565b6020850151909350610d958161105a565b604085015190925063ffffffff81168114610dae578182fd5b809150509250925092565b600060208284031215610dca578081fd5b5051919050565b60008060408385031215610de3578182fd5b505080516020909101519092909150565b60008151808452815b81811015610e1957602081850181015186830182015201610dfd565b81811115610e2a5782602083870101525b50601f01601f19169290920160200192915050565b6bffffffffffffffffffffffff19606093841b811682529190921b16601482015260280190565b6001600160f81b0319815260609390931b6bffffffffffffffffffffffff191660018401526015830191909152603582015260550190565b90815260200190565b6001600160a01b0391909116815260200190565b6001600160a01b03958616815293851660208501529190931660408301526060820192909252608081019190915260a00190565b6001600160a01b039485168152928416602084015292166040820152606081019190915260800190565b6001600160a01b0393909316835260208301919091521515604082015260600190565b600085825284602083015260018060a01b038416604083015260806060830152610bba6080830184610df4565b92835260208301919091526001600160a01b0316604082015260806060820181905260009082015260a00190565b602080825260159082015274426f72696e674d6174683a20556e646572666c6f7760581b604082015260600190565b60208082526018908201527f426f72696e674d6174683a20416464204f766572666c6f770000000000000000604082015260600190565b60208082526018908201527f426f72696e674d6174683a204d756c204f766572666c6f770000000000000000604082015260600190565b918252602082015260400190565b6001600160a01b038116811461105757600080fd5b50565b6001600160701b038116811461105757600080fdfea2646970667358221220bfdab26a666bbca51a4e0558980782e77241f7557da8b3450f73f344e413d06464736f6c634300060c0033",
  "devdoc": {
    "kind": "dev",
    "methods": {},
    "version": 1
  },
  "userdoc": {
    "kind": "user",
    "methods": {
      "swap(address,address,address,uint256,uint256)": {
        "notice": "Withdraws 'amountFrom' of token 'from' from the BentoBox account for this swapper. Swaps it for at least 'amountToMin' of token 'to'. Transfers the swapped tokens of 'to' into the BentoBox using a plain ERC20 transfer. Returns the amount of tokens 'to' transferred to BentoBox. (The BentoBox skim function will be used by the caller to get the swapped funds)."
      },
      "swapExact(address,address,address,address,uint256,uint256)": {
        "notice": "Calculates the amount of token 'from' needed to complete the swap (amountFrom), this should be less than or equal to amountFromMax. Withdraws 'amountFrom' of token 'from' from the BentoBox account for this swapper. Swaps it for exactly 'exactAmountTo' of token 'to'. Transfers the swapped tokens of 'to' into the BentoBox using a plain ERC20 transfer. Transfers allocated, but unused 'from' tokens within the BentoBox to 'refundTo' (amountFromMax - amountFrom). Returns the amount of 'from' tokens withdrawn from BentoBox (amountFrom). (The BentoBox skim function will be used by the caller to get the swapped funds)."
      }
    },
    "version": 1
  },
  "storageLayout": {
    "storage": [],
    "types": null
  }
}